:020000040800F2
:1000000048040020C1010008F30C0008910C00080E
:10001000F10C000809020008691000080000000047
:10002000000000000000000000000000170D0008A4
:100030000B02000800000000150D0008190D000853
:10004000DB010008DB010008DB010008DB01000820
:10005000DB010008DB010008DB010008DB01000810
:10006000DB010008DB010008DB010008DB01000800
:10007000DB010008DB010008DB010008DB010008F0
:10008000DB010008DB010008DB010008DB010008E0
:10009000DB010008DB010008DB010008DB010008D0
:1000A000DB010008DB010008DB010008DB010008C0
:1000B000DB010008DB010008DB010008DB010008B0
:1000C000DB010008DB010008DB010008DB010008A0
:1000D000DB010008DB010008DB010008DB01000890
:1000E000DB010008DB010008DB010008DB01000880
:1000F000DB010008DB010008DB010008DB01000870
:10010000DB010008DB010008DB010008DB0100085F
:10011000DB010008DB010008DB010008DB0100084F
:10012000DB010008DB010008DB010008DB0100083F
:10013000DB010008DB010008DB010008DB0100082F
:10014000DB010008DB010008DB010008DB0100081F
:10015000DB010008DB010008DB010008DB0100080F
:10016000DB010008DB010008DB010008DB010008FF
:10017000DB010008DB010008DB01000800000000D3
:10018000DB010008DB010008DB010008DB010008DF
:10019000DB010008DB010008DB010008DB010008CF
:1001A000DB010008DB010008DB010008DFF80CD0F0
:1001B00000F018F8004800478910000848040020A3
:1001C0000648804706480047FEE7FEE7FEE7FEE7F1
:1001D000FEE7FEE7FEE7FEE7FEE7FEE7D10D0008DB
:1001E000AD010008064C074D06E0E06840F0010351
:1001F00094E8070098471034AC42F6D3FFF7DAFFD3
:10020000DC100008FC100008FEE770472DE9F84FED
:10021000DFF890B100224FF001084FF0030A4FF0D1
:100220000F090BF1040E00BF0B6808FA02F423401B
:10023000A3426ED14D68022D01D0122D0ED1D508EA
:1002400000EB850CDCF820505607F70E09FA07F68C
:10025000B5430E69BE402E43CCF8206006685500B9
:100260000F790AFA05FC07F0030726EA0C06AF40EF
:10027000374307604E68012E05D0022E03D0112EA1
:1002800001D0122E0ED18768CE6827EA0C07AE4047
:100290003E4386604668A6430C79C4F3001494403C
:1002A00034434460C4688E6824EA0C04AE4026439C
:1002B000C6604C68E4006FD53B4C256845F480452A
:1002C0002560246822F0030504F480440094374C30
:1002D0002E19D6F8084895072F0F09FA07F5AC43F1
:1002E000334DA84201D100252EE0324DA84201D164
:1002F000012529E0304DA84201D1022524E02F4DEF
:10030000A84201D103251FE02D4DA84202D10425AA
:100310001AE041E02B4DA84201D1052514E02A4DF9
:10032000A84201D106250FE0284DA84201D107259A
:100330000AE0274DA84201D1082505E0254DA84235
:1003400001D1092500E00A25BD402543C6F808581B
:10035000DBF800405D464E689C43F60300D51C4325
:100360002C60DEF8004075464E689C43B60300D50D
:100370001C432C600B4D08352C684E689C43F602DC
:1003800000D51C432C60074D0C352C684E689C43EF
:10039000B60200D51C432C60521C102AFFF444AF57
:1003A000BDE8F88F003C0140443802400030014075
:1003B000000002400004024000080240000C02401D
:1003C000001002400014024000180240001C0240CD
:1003D00000200240002402400148006870470000ED
:1003E0000000002002480168491C016070470000BD
:1003F000000000200B4810B5016841F40071016055
:10040000016841F480610160016841F4807101601C
:10041000032000F069F8002000F006F800F018F85A
:10042000002010BD003C024010B5044607484FF4C0
:100430007A710068B0FBF1F000F029FB0022214640
:10044000501E00F031F8002010BD00000400002014
:1004500010B5032000F048F8002211466FF00B00A1
:1004600000F022F8002211466FF00A0000F01CF89C
:10047000002211466FF0090000F016F80022114624
:10048000501F00F011F800221146101F00F00CF868
:1004900000221146901E00F007F80022BDE810402F
:1004A0001146501EAFF30080F0B40E4B1B680C4693
:1004B000C3F30223C3F10705042D00D90425191D38
:1004C000072901D2002300E0DB1E012606FA05F110
:1004D000491E214099409E40761E16403143F0BC93
:1004E00000F008BC0CED00E0064900F007020868C7
:1004F0004FF6FF03184040EA0220034A1043086009
:10050000704700000CED00E00000FA052DE9F8430B
:100510001E48016841F0805101600068012600F02A
:1005200080500090300490FAA0F0194FB0FA80F09B
:1005300047F82060FFF750FF05464FF47A78154CD6
:1005400005E000BFFFF748FF401B404515D8606835
:10055000C003F7D54FF4003090FAA0F0B0FA80F065
:1005600047F82060FFF738FF0546464608E000BF21
:10057000FFF732FF401BB04202D90320BDE8F883E9
:1005800060688003F4D50020F8E70000403802409E
:1005900000000E42007000402DE9F047DFF8649142
:1005A00005460F46D9F8000000F00F01F8B280466A
:1005B000B94208D2014689F80010D9F8000000F0CD
:1005C0000F00B84274D128784F4C800705D52068B9
:1005D000A96820F0F000084320602878C00759D0AF
:1005E00049496868083901281AD002281BD0032815
:1005F00019D00968890700295ADA216821F0030116
:1006000001432160FFF7E8FE6968064641F2883041
:10061000012911D002291DD00329824627D035E0B7
:1006200009688903E7E709688901E4E7FFF7D4FE71
:10063000811B514501D926E082462068C0F3810024
:100640000128F3D126E000BFFFF7C6FE811B51450C
:1006500001D918E082462068C0F381000228F3D156
:1006600018E000BFFFF7B8FE811B51450BD820688A
:10067000C0F381000328F5D10CE000BFFFF7ACFE0A
:10068000811B514502D90320BDE8F087206810F096
:100690000C0FF3D1D9F80010484601F00F01B94210
:1006A00008D980F80080006800F00F00B84201D03F
:1006B0000120E9E72878400705D52068E96820F49B
:1006C000E050084320602878000706D52068296993
:1006D00020F4604040EAC100206000F021F8216869
:1006E000F02292FAA2F201F0F001B2FA82F2D140C5
:1006F000064A515CC840064908600020FFF794FE96
:100700000020C1E7003C024008380240CC1000083D
:100710000400002001480068704700000400002029
:1007200030B51948006810F00C01184812D0441078
:1007300004290ED008290DD11349091F0A6802F0B7
:100740003F030A68550247F6C07204D5B4FBF3F0C4
:1007500003E0204630BDB0FBF3F00B68096813409E
:1007600092FAA2F2B2FA82F2D34058434FF44032E6
:1007700092FAA2F201F44031B2FA82F2D140491C5D
:100780004900B0FBF1F030BD083802400024F4000D
:100790002DE9F84F0446DFF8CC820078A8F1040B6D
:1007A000C007ABF1040537D0D8F800104046C1F3BC
:1007B0008101012908D00068C0F3810002280AD114
:1007C000DBF80000400206D52868800324D5606865
:1007D000002878D020E0A3492079891F087060683C
:1007E00068B1FFF7F9FD064605E000BFFFF7F4FD2D
:1007F000801B642868D828688003F7D50CE0FFF7D1
:10080000EBFD064605E000BFFFF7E6FD801B642810
:10081000F0D828688003F7D42078934E80074FF0F3
:10082000010A4FF0000742D5D8F80010404611F0F9
:100830000C0F08D00068C0F3810002280AD1DBF851
:100840000000400206D42868800714D5E06801281B
:1008500039D110E0E068D8B1C6F800A0FFF7BCFDC0
:10086000814605E0FFF7B8FDA0EB09000228C1D8DA
:1008700028688007F6D52868F82292FAA2F2216942
:10088000B2FA82F220F0F8009140084328600EE0AE
:100890003760FFF7A1FD814606E000BFFFF79CFD32
:1008A000A0EB090002280FD828688007F6D420782A
:1008B000000728D56D486169A1B1C0F800A0FFF715
:1008C0008BFD814608E0CAE079E000BFFFF784FDB8
:1008D000A0EB0900022872D862486C3000688007DB
:1008E000F4D510E00760FFF777FD814606E000BF12
:1008F000FFF772FDA0EB0900022860D859486C3060
:1009000000688007F4D42078400749D5554838302E
:10091000016841F080510160006800F08050009053
:100920005348016841F480710160FFF755FD81462D
:1009300006E000BFFFF750FDA0EB090002283ED8FB
:100940004B480068C005F5D5DFF81891207A09F109
:10095000680989F80000A06888B1FFF73DFD0090A4
:1009600008E000BFFFF738FD0099411A41F28830D6
:1009700081426CD8D9F800008007F3D510E0FFF76A
:100980002BFD009008E000BFFFF726FD0099411AFB
:1009900041F2883081425AD8D9F800008007F3D458
:1009A000A069E0B3D8F80010C1F38101022956D044
:1009B0000228376604D0FFF70FFD04464AE046E000
:1009C000FFF70AFD074604E0FFF706FDC01B0228FB
:1009D0003DD828688001F7D4D4E90701084347F6D9
:1009E000C07292FAA2F2616AB2FA82F29140A26AED
:1009F0004FF0FF3303EB52024FF4403393FAA3F36B
:100A0000B3FA83F39A40114308434FF0706292FAAD
:100A1000A2F2E16AB2FA82F29140084300E01CE0DF
:100A2000CBF80000C6F860A0FFF7D6FC044604E04F
:100A3000FFF7D2FC001B022809D828688001F7D5EF
:100A40000BE000BFFFF7C8FC001B022802D90320FF
:100A5000BDE8F88F28688001F4D40020F8E7012071
:100A6000F6E700000838024000004742800E474287
:100A7000007000404FF0E0210428086903D020F006
:100A800004000861704740F00400FAE7704710B5B1
:100A9000401EB0F1807F01D3012010BD4FF0E02453
:100AA00060610F21601700F025F90020A061072088
:100AB0002061002010BD10B5FFF7E8FF10BD10B594
:100AC000040003D094F8390010B107E0012010BDF4
:100AD000002084F83800204600F00CF8022084F84A
:100AE0003900211D206800F09DF9012084F83900AB
:100AF000002010BD08B500680649884208D10648A4
:100B0000016841F480710160006800F48070009019
:100B100008BD0000002000404038024000B50068D9
:100B2000094985B088420CD14015009002200190FF
:100B30000020029003900920049069460348FFF7C3
:100B400065FB05B000BD000000200040001402401D
:100B500070B5044690F838000D4601280DD00126E6
:100B600084F83860022084F8390042B1042A18D091
:100B7000082A2AD00C2A4DD139E0022070BD206805
:100B800000F0BCF92068816941F0080181612068AA
:100B9000816921F004018161206881692A6911431A
:100BA00011E0206800F0D6F92068816941F4006105
:100BB00081612068816921F4806181612068816997
:100BC0002A6941EA0221816124E0206800F0F4F9F9
:100BD0002068C16941F00801C1612068C16921F044
:100BE0000401C1612068C1692A69114311E02068CC
:100BF00000F012FA2068C16941F40061C161206807
:100C0000C16921F48061C1612068C1692A6941EA32
:100C10000221C16184F83960002084F8380070BD79
:100C200010B5040003D094F8390010B107E001209A
:100C300010BD002084F83800204600F00CF8022097
:100C400084F83900211D206800F0ECF8012084F8B8
:100C50003900002010BD704710B50446006801221D
:100C600000F040F908492068884202D007498842CC
:100C700003D1416C41F4004141642068016841F0B6
:100C800001010160002010BD00000140000401408E
:100C9000FEE7000010B5154888B0134901605921DE
:100CA0000024C0E9011440F2E731C0E90314FFF762
:100CB00006FF00B1FEE70D48FFF7B2FF00B1FEE707
:100CC000602000906420019002200290002269467A
:100CD00004940648FFF73CFF00B1FEE70348FFF726
:100CE0001DFF08B010BD00000020004008000020DB
:100CF000FEE770470907090E002806DA00F00F002A
:100D000000F1E02080F8141D704700F1E02080F829
:100D1000001470477047704710B5FFF763FBBDE8DC
:100D20001040FFF7C8BE000030B5274893B000253B
:100D3000016841F080510160006800F0805011901E
:100D40002248016841F4404101600068022400F437
:100D5000404011900120009001908005CDE90640AF
:100D6000082008904FF4B470CDE9090404200B90DA
:100D70006846FFF70DFD00B1FEE7FFF7C7FB00B1C6
:100D8000FEE70CA90F2081E831004FF4A0500F902E
:100D90004FF48050109005210CA8FFF7FDFB00B127
:100DA000FEE7FFF7B7FC4FF47A71B0FBF1F0FFF705
:100DB0006EFE0420FFF75EFE00221146501EFFF774
:100DC00073FB13B030BD000040380240007000409B
:100DD0001048016841F4700101600F48016841F05A
:100DE000010101600C4A00210832116002680B4BBE
:100DF0001A400260031D0A4A1A60026822F4802227
:100E0000026005480C3001600249580680390860CC
:100E10007047000088ED00E000380240FFFFF6FE5A
:100E200010300024F0B50268234B244D244E254F8A
:100E3000254C4FF0804C984209D0604507D0A8421D
:100E400005D0B04203D0B84201D0A04204D122F074
:100E5000700E4A6842EA0E0298421BD0604519D0D3
:100E6000A84217D0B04215D0B84213D0A04211D03A
:100E7000164DA8420ED0164DA8420BD0154DA842D3
:100E800008D0154DA84205D0144DA84202D0144DEB
:100E9000A84203D122F44075CA682A4302608A68D6
:100EA000C2620A688262984201D0A04201D10969F7
:100EB000016301214161F0BD0000014000040040D8
:100EC00000080040000C00400004014000400140C8
:100ED000004401400048014000180040001C004050
:100EE0000020004010B50123046A8B409C4304623B
:100EF000036A8A401343036210BD000030B5026AE2
:100F000022F001020262026A436884690D6824F0DB
:100F10007304254322F002048A6822430B4CA0424A
:100F200002D00B4CA0420BD122F00804CA6823F473
:100F3000407322434C6922F004021C438B69234313
:100F40004360856149684163026230BD0000014031
:100F50000004014030B5026A22F010020262026A07
:100F6000436884690D6824F4E64444EA05248D68E6
:100F700022F0200242EA05120D4DA84202D00D4D8A
:100F8000A8420ED1CD6822F0800242EA05124D69D6
:100F900023F4406343EA85038D6922F0400243EA6B
:100FA00085034360846149688163026230BD00004B
:100FB000000001400004014030B5026A22F4807252
:100FC0000262036A4268C46923F4007324F0730563
:100FD0000C682C438D6843EA05230D4DA84202D0CE
:100FE0000C4DA8420ED1CD6823F4006343EA0523DB
:100FF0004D6922F4405242EA05128D6923F4806360
:1010000042EA05124260C4614968C163036230BDAF
:10101000000001400004014030B5026A22F4805211
:101020000262046A4268C3690D6823F4E64343EA36
:1010300005238D6824F4005444EA0534084DA84281
:1010400002D0084DA84204D14D6922F4804242EA00
:1010500085124260C36149680164046230BD0000CA
:101060000000014000040140FEE702E008C8121F32
:1010700008C1002AFAD170477047002001E001C181
:10108000121F002AFBD1704708B5FFF7B3F9FFF72D
:101090004BFE0C48016841F020010160016801F03D
:1010A00020010091016841F080010160006800F0BA
:1010B00080000090FFF7EEFD00210348FFF7CCFD14
:1010C000FEE7000030380240080000200000000069
:1010D000010203040102030406070809FC100008CA
:1010E00000000020080000006A1000080411000839
:1010F00008000020400400007A10000800000000F2
:041100000024F400D3
:04000005080001AD41
:00000001FF
